:1016ED00012001010D00010800011B00011F010176
:0216FD001D00CE
:101197001216421214061217B71213AD1215248F26
:1011A7000C8E0B8D0A8C09120F8E8F20121599AF9A
:1011B7000CAE0BAD0AAC09120D7BAB07AA06752F57
:1011C700037530107D06E4FF121211E51EFB7A004D
:1011D700752F017530107D067F64121211E52024EA
:1011E700FE6011146012146013146014240470124A
:1011F700C2A7800EC286800AC2848006C28280028D
:0A120700C28012134D121609808CEC
:1013AD001216BFE520B40505E4F51F8008E520B44D
:1013BD000103751F01E50D6401703A85201CE51FC1
:1013CD00B40116051CE51C25E0240FF8E67022E596
:1013DD001CB405EFE4F51F8018E51F7014151CE50E
:1013ED001C25E0240FF8E67008E51CB401EF751F0D
:0913FD0001851C1E2285201E2220
:10134D00E520651E7029E52025E0240FF8E6B4019F
:10135D000AC2A0121772121772D2A0E52025E0243E
:10136D000FF8E4F6F51D7F05120003E4FF802DE56F
:10137D001FB401137F051200037F011200037F01CB
:10138D001200037F8F8015E51F70147F0512000377
:10139D007F01120003E4FF1200037FDF120003221E
:100F8E00E4FFFE7D807C3FAB0CAA0BA90AA80912D8
:100F9E000CC450037F0122E4FFFE7D207C41AB0C8C
:100FAE00AA0BA90AA809120CC45018E4FFFEFD7C76
:100FBE0041AB0CAA0BA90AA809120CC46005400388
:100FCE007F0222E4FFFE7D907C41AB0CAA0BA90AA6
:100FDE00A809120CC45019E4FFFE7D807C41AB0CB5
:100FEE00AA0BA90AA809120CC4600540037F0322AC
:100FFE00E4FFFE7DD87C41AB0CAA0BA90AA809120E
:10100E000CC45019E4FFFE7DC87C41AB0CAA0BA9A1
:10101E000AA809120CC4600540037F0422E4FFFEF7
:10102E007D0C7C42AB0CAA0BA90AA809120CC45069
:10103E0019E4FFFE7D047C42AB0CAA0BA90AA80999
:0D104E00120CC4600540037F0522AF202274
:0917B700120EB71217480216D6F3
:101609007F03120003AF201200037F07120003AF0C
:0E1619001E1200037F06120003AF1F02000323
:100EB70020A4181217AD20A412750F01D2A57F0226
:100EC700120003E4FF12000330A4FD20A617121737
:100ED700AD20A611E5206401600B751101751201A3
:100EE700D2A730A6FD20872A1217AD208724E52038
:100EF7006402601E751301E520D394024005E4F5F2
:100F070014800AE520C394025003751401D2863079
:100F170087FD20852A1217AD208524E5206403600C
:100F27001E751501E520D394034005E4F516800AE4
:100F3700E520C394035003751601D2843085FD2044
:100F4700832A1217AD208324E5206404601E7517D9
:100F570001E520D394044005E4F518800AE520C391
:100F670094045003751801D2823083FD2081171233
:100F770017AD208111E5206405600B751901E4F5B3
:070F87001AD2803081FD2227
:030023000214576D
:10145700C0E0C0F0C0D075D000C000C006C00730E3
:10146700982EC29885990EE50EB4FF05C2A5750F93
:1014770000E50E75F00A84AFF0EF25E0240FF8764B
:1014870001E50E75F00A84FEEF25E02410F8A606A4
:0D149700D007D006D000D0D0D0F0D0E03289
:10164200C2A7C286C284C282C280C2A5D2A012161A
:0A165200A812176412105B0215C203
:1016A800E4FFEF25E0240FF8E4F6EF25E02410F836
:0616B800E4F60FBF06EC92
:0116BE002209
:101406007B04E4FD7F041214A47B58E4FD7F1812CC
:1014160012857B05E4FD7F251214A47B06E4FD7F7F
:10142600371214A47B07E4FD7F491214A47B08E459
:10143600FD7F5B1214A47B09E4FD7F6D1214A47B6F
:101446000A7D047F051214A47B0B7D047F1702140A
:01145600A4F1
:10159900E520FB7A00752F017530107D047F32122A
:1015A9001211E51FB401047B0C8006E51F70097B4D
:0915B9000D7D047F641214A422CC
:1016BF00E4F50DFFEF25E0240FF8E6B40104750DF6
:0616CF0001220FBF06EE30
:0116D50022F2
:10170000D3EF9400EE940040090000EF1F70F11E2B
:0317100080EE2246
:10162700D3EF9400EE9400401100007D0C7CA8DC01
:0A163700FEDDFCEF1F70E91E80E6E7
:011641002286
:0E174800C2B2D2B27F147E00121700C2B222CB
:1016D600D2AF30B3FDE4F53B120016D2AA7F1E7ED0
:0716E60000121627C28C223E
:10152400E53BB40125E53CFE7C00E4253DFDEC3EB5
:10153400FCE4120D427B967A43798B783C120BBE05
:101544008F2E8E2D8D2C8C2B8009E4F52EF52DF508
:0B1554002CF52BAF2EAE2DAD2CAC2BD8
:01155F002269
:0D001600D2A9438901D28CE4F58CF58A2231
:030013000217567B
:0E175600C28C858C3C858A3DC2AA753B01324F
:03000B0002000EE2
:03000E00C28C326F
:0E176400439850438E11759CFDD2AFD2AC223B
:080003008F993099FDC299228A
:10171300120DFCFF600C120003740129F9E43AFA7C
:0317230080EE2233
:0517C9007F34DFFE008B
:0117CE0022F8
:091799007F4E7E02DEFEDFFA0045
:0117A2002224
:0917A3007F0E7E61DEFEDFFA001C
:0117AC00221A
:0917AD007F157E82DEFEDFFA00EA
:0117B6002210
:0817C0007FC27E8DDEFEDFFA20
:0117C80022FE
:0C1772007F9D7ECF7D07DDFEDEFADFF6F6
:01177E002248
:0C177F007FF67ED47D19DDFEDEFADFF679
:01178B00223B
:0C178C007FD97EAB7D49DDFEDEFADFF682
:01179800222E
:10165C00D3EF9400EE94004010007D0B7CBEDCFEBA
:09166C00DDFCEF1F70EA1E80E7AF
:011675002252
:100026000000000000000000002F00000000070094
:10003600070000147F147F1400242A7F2A1200620E
:1000460064081323003649552250000005030000BA
:1000560000001C224100000041221C000014083E42
:1000660008140008083E0808000000A06000000808
:10007600080808080000606000000020100804025C
:10008600003E5149453E0000427F4000004261511A
:100096004946002141454B31001814127F100027B4
:1000A60045454539003C4A49493000017109050377
:1000B60000364949493600064949291E00003636A8
:1000C600000000005636000000081422410000140B
:1000D60014141414000041221408000201510906E8
:1000E60000324959513E007C1211127C007F494969
:1000F6004936003E41414122007F4141221C007F9A
:1001060049494941007F09090901003E4149497AA7
:10011600007F0808087F0000417F41000020404121
:100126003F01007F08142241007F40404040007F8D
:10013600020C027F007F0408107F003E4141413ED1
:10014600007F09090906003E4151215E007F091919
:1001560029460046494949310001017F0101003F16
:100166004040403F001F2040201F003F4038403F96
:1001760000631408146300070870080700615149FA
:10018600454300007F41410000552A552A5500008D
:1001960041417F000004020102040040404040400B
:1001A600000001020400002054545478007F4844A3
:1001B600443800384444442000384444487F0038DA
:1001C6005454541800087E0901020018A4A4A47C03
:1001D600007F080404780000447D400000408084CD
:1001E6007D00007F102844000000417F4000007C15
:1001F60004180478007C0804047800384444443821
:1002060000FC242424180018242418FC007C08046C
:10021600040800485454542000043F444020003C45
:100226004040207C001C2040201C003C4030403CCC
:10023600004428102844001CA0A0A07C004464545C
:100246004C441414141414140000000000000000A0
:100256000000000000000000000000F800000000A0
:10026600000000333000000000100C06100C0600E1
:10027600000000000000000040C07840C078400048
:10028600043F04043F040400007088FC08300000AA
:10029600001820FF211E0000F008F000E018000002
:1002A60000211C031E211E0000F0088870000000BB
:1002B6001E2123241927211010160E00000000000D
:1002C6000000000000000000000000E0180402002A
:1002D600000000071820400000020418E00000009B
:1002E6000040201807000000404080F08040400099
:1002F6000202010F01020200000000F000000000EF
:100306000101011F010101000000000000000000C2
:1003160080B0700000000000000000000000000037
:1003260000010101010101010000000000000000C0
:10033600003030000000000000000000806018045B
:10034600006018060100000000E010080810E00038
:10035600000F102020100F00001010F80000000001
:100366000020203F20200000007008080888700048
:1003760000302824222130000030088888483000C8
:100386000018202020110E000000C02010F80000E8
:1003960000070424243F240000F808888808080081
:1003A6000019212020110E0000E010888818000096
:1003B600000F112020110E0000380808C838080068
:1003C6000000003F000000000070880808887000E8
:1003D600001C222121221C0000E010080810E00069
:1003E6000000312222110F00000000C0C0000000F2
:1003F6000000003030000000000000800000000017
:10040600000080600000000000008040201008000E
:1004160000010204081020004040404040404000D7
:1004260004040404040404000008102040800000B2
:100436000020100804020100007048080808F000B7
:100446000000003036010000C030C828E810E00087
:100456000718272423140B000000C038E000000012
:10046600203C23020227382008F88888887000007C
:10047600203F202020110E00C03008080808380050
:10048600071820202010080008F808080810E000C7
:10049600203F202020100F0008F88888E808100068
:1004A600203F20202320180008F88888E80810003C
:1004B600203F200003000000C03008080838000074
:1004C60007182020221E020008F808000008F80875
:1004D600203F210101213F20000808F808080000FC
:1004E6000020203F2020000000000808F80808002F
:1004F600C08080807F00000008F888C028180800A7
:10050600203F20012638200008F8080000000000DF
:10051600203F20202020300008F8F800F8F80800D6
:10052600203F003F003F200008F830C00008F808D0
:10053600203F200007183F00E01008080810E000E0
:100546000F10202020100F0008F808080808F000F7
:10055600203F210101010000E01008080810E0001A
:100566000F18242438504F0008F8888888887000AF
:10057600203F2000030C302000708808080838004F
:100586000038202121221C00180808F80808180045
:100596000000203F2000000008F808000008F808C6
:1005A600001F202020201F000878880000C8380877
:1005B600000007380E010000F80800F80008F800EF
:1005C600033C0700073C0300081868808068180889
:1005D60020302C03032C30200838C800C838080007
:1005E6000000203F2000000010080808C838080056
:1005F6002038262120201800000000FE02020200FA
:100606000000007F40404000000C30C000000000A9
:10061600000000010638C00000020202FE000000D1
:10062600004040407F000000000004020202040077
:1006360000000000000000000000000000000000B4
:10064600808080808080808000020204000000009C
:100656000000000000000000000080808080000094
:100666000019242222223F2008F800808000000082
:10067600003F112020110E00000000808080000045
:10068600000E112020201100000000808088F80054
:10069600000E112020103F20000080808080000086
:1006A600001F222222221300008080F088888818EA
:1006B6000020203F202000000000808080808000F5
:1006C600006B94949493600008F80080808000008A
:1006D600203F210000203F20008098980000000065
:1006E6000020203F20200000000000809898000095
:1006F60000C08080807F000008F8000080808000B5
:10070600203F24022D302000000808F800000000D9
:100716000020203F20200000808080808080800094
:10072600203F20003F20003F808000808080000026
:10073600203F210000203F200000808080800000B4
:10074600001F202020201F008080008080000000E5
:1007560080FFA12020110E00000000808080800014
:10076600000E112020A0FF80808080008080800005
:1007760020203F2120000100000080808080800032
:100786000033242424241900008080E080800000A7
:100796000000001F202000008080000000808000F4
:1007A600001F202020103F20808080000080808055
:1007B60000010E30080601008080008000808080E5
:1007C6000F300C030C300F0000808000808080000A
:1007D6000020312E0E312000808080000080808035
:1007E60080818E70180601000080808080808000E5
:1007F6000021302C2221300000000000807C020203
:1008060000000000003F404000000000FF00000024
:1008160000000000FF0000000002027C80000000D3
:100826000040403F000000000006010102020404EF
:10083600000000000000000004244484649C403052
:100846000FC808082818000000000000000000007B
:10085600000000000000000010080601824C20186D
:10086600060106182040800000000000000000007D
:100876000000000000000000404042CC0000FC04E4
:100886000200FC0404FC0000000000000000000060
:1008960000000000000000000040201F20404F44E0
:1008A60042407F4244434000000000000000000038
:1008B60000000000000000008060F80704E4242423
:1008C60024FF242424E404000000000000000000AB
:1008D60000000000000000000000FF0080814529A4
:1008E600112F4141818180000000000000000000BE
:1008F60000000000000000000000FE22222222FE6E
:1009060022222222FE00000000000000000000005B
:10091600000000000000000080601F020202027F4B
:10092600020242827F00000000000000000000007A
:10093600000000000000000040422410FF00844434
:1009460044447F44444404000000000000000000CA
:100956000000000000000000222212120AFE4227B8
:100966000A1222324A424200000000000000000043
:1009760000000000000000001010F01F1010F00032
:1009860000F8080808F80000000000000000000059
:1009960000000000000000008041221408166100DB
:1009A600007F2020207F00000000000000000000E3
:1009B60000000000000000000000FE021222C20239
:1009C600C23202FE0000000000000000000000002D
:1009D600000000000000000080601F0020100C03D3
:1009E6000C30000F3040F80000000000000000004E
:1009F60000000000000000000000F888888888FFDA
:100A060088888888F80000000000000000000000C8
:100A1600000000000000000000001F080808087F12
:100A2600888888889F80F000000000000000000091
:100A360000000000000000001010D0FF901000C958
:100A46004E48F84C4B780000000000000000000003
:100A56000000000000000000040300FF0041201316
:100A66000A06FF0212221E0000000000000000001D
:100A76000000000000000000000000FE0000000072
:100A86000000000000000000000000000000000060
:100A9600000000000000000000000033000000001D
:100AA6000000000000000000000000000000000040
:100AB60000000000000000001090FF90100090520F
:100AC60034107F1034529000000000000000000037
:100AD60000000000000000000601FF000182825AAB
:100AE600562322524E820200000000000000000041
:100AF60000000000000000000000FE129292929298
:100B060092929292929E0000000000000000000067
:100B1600000000000000000080601F0444E4544C04
:100B26004444445464C40400000000000000000073
:100B360000000000000000000000000040301CFF24
:100B46001C30400000000000000000000000000013
:100B5600000000000000000000000000000000FF90
:100B6600000000000000000000000000000000007F
:100B7600000000000000000000000000000000FF70
:100B8600000000000000000000000000000000005F
:100B9600000000000000000000000000020C38FF0A
:100BA600380C0200000000000000000000000000F9
:080BB600000000000000000037
:10167600EF4E60157D087C07ED1DAA0470011C4A1B
:0916860070F6EF1F70EA1E80E708
:01168F002238
:10156000F583E5822CF582E43583F583E493FF7DF2
:011570000179
:10157100ED6004D2918002C291C290E4FEC294EF68
:1015810030E704D2938002C293D294EF25E0FF0E9C
:07159100BE08EAD290D291DE
:011598002230
:1015E900AC07ED24B0FFE4FD121571EC54F0C454BE
:1015F9000F4410FF121571EC540F4401FF021571CD
:10172600E4FD7F8D1215717F141215717FAF0215BE
:011736007141
:10173700E4FD7F8D1215717F101215717FAE0215B2
:011747007130
:1015C200E4FCEC24B0FFE4FD121571E4FF12157186
:1015D2007F10121571E4FB7D01E4FF1215710BBB44
:0615E20080F50CBC08DCE2
:0115E80022E0
:06128500AA07A905AF0352
:10128B00E4FCEF24E0FBEAD3947F4004E4FA090981
:10129B00AF02AD011215E9E4FC75F010EBA42CF5CF
:1012AB0082E435F0F583E582244EF582E583340242
:1012BB0012156A0CBC08E2AF02E904FD1215E9E451
:1012CB00FC75F010EBA42CF582E435F0F583E58288
:1012DB002456F582E583340212156A0CBC08E2220F
:041690008F34A905E5
:101694007F017E00AD0119ED6009AD347C00120EAE
:0316A4004280F190
:0116A7002220
:081211008F2B8D2C8A2D8B2EF2
:10121900E4F533F531E531C3952F505FC3E52F95DB
:101229003114FD7F0A121690AC2DAD2ECFCDCFCE45
:10123900CCCE120E547C007D0A120E548D32E53349
:101249007020E52F14FFE531C39F5016E532700F6A
:10125900E530C3138531F0A4252BFF7B208013755E
:101269003301E530C3138531F0A4252BFFE5322482
:0B12790030FBAD2C1212850531809A6D
:011284002247
:0A14E7008F358D368B378A3889392E
:1014F100E4F53AAB37AA38A939853A8275830012E7
:101501000E15FB601DAD36AF3512128574082535F9
:10151100F535D394784007E4F53505360536053AB7
:0215210080D177
:0115230022A5
:0414A400AA07A905E5
:1014A800E4F52B1215E9E4FC75F040EBA4243EF5B5
:1014B80082E5F03408121560052B0CBC10EAAF0267
:1014C800E904FD1215E9E4FC75F040EBA4245EF58F
:0E14D80082E5F03408121560052B0CBC10EAFA
:0114E60022E3
:0412EB008F218B23A1
:1012EF00E4F528F529E5245407700BE524131313AF
:1012FF00541FF52A800AE524131313541F04F52AEB
:10130F008D2AE52AC395245034AD2AAF211215E951
:10131F00AC21ECC395235021AB25AA26A92705297B
:10132F00E529AE287002052814F5828E83120E155A
:0D133F00FF7D011215710C80D9052A80C5B3
:01134C00227E
:10105B00D2927F647E00121676C2927F647E00125B
:10106B001676D292E4FD7FAE121571E4FF12157164
:10107B007F101215717F401215717F811215717FD0
:10108B00CF1215717FA11215717FC81215717FA632
:10109B001215717FA81215717F3F1215717FD31234
:1010AB001571E4FF1215717FD51215717F80121522
:1010BB00717FD91215717FF11215717FDA121571CB
:1010CB007F121215717FDB1215717F401215717F24
:1010DB00201215717F021215717F8D1215717F14FD
:1010EB001215717FA41215717FA61215717FAF12A5
:1010FB0015717FAF1215711215C2E4FDFF0215E9D0
:100BBE00EC4D6011E8497017ED33EC3304600DE431
:100BCE00FCFFFEFD22E933E8330470F8020DE71254
:100BDE000DB258046009E4CC248150062850090255
:100BEE000DF1284003020DEEC0E0EB4A7044B980CF
:100BFE0006D0E0FB020DDDEF4E701CBD8008EBFF52
:100C0E00EAFEE9FD80EBE98DF0A4FEE5F0020CA70B
:100C1E00E9CDF9EAFEEBFFEF89F0A4FCE5F0CE8911
:100C2E00F0A42EFFE435F0CD89F0A42DFEE435F0CE
:100C3E008067EF4E7005BD80D780C3EF8BF0A4ACFC
:100C4E00F0EE8BF0A42CFCE435F0F8EF8AF0A42C37
:100C5E00E5F038FCE433CB8DF0A42CFCE5F03BF84A
:100C6E00EE8AF0A42CFCE5F038F8E433CF89F0A43A
:100C7E002CFCE5F038CF3400CE89F0A42FFFE5F040
:100C8E003EFEE433C98DF0A42EFEE5F039CD8AF098
:100C9E00A42FFFE5F03EFEE43DFD33D0E0FB500710
:100CAE000BBB000F020DF1EC2CFCEF33FFEE33FE0D
:060CBE00ED33FD020DC93B
:100CC40074F8CC6480CCC86480C8F58204604FC3D7
:100CD400EB9FF5F0EA9E42F0E99D42F0E89C45F076
:100CE400603C501DE5825FFFE582D313CB5BCBF400
:100CF4002B5582FB50280ABA002409B90020088029
:100D04001DE5825BFBE582D313CF5FCFF4C3132FC2
:100D14005582FF50090EBE00050DBD00010CC3EB4A
:100D24009FF5F0EA9E42F0E99D42F0E89C45F060B0
:090D340007CC4820E701B3EC22D2
:100D3D0075F020800E75F010800575F0087D007E31
:100D4D00007F003392D530D503120EA9EC3340103D
:100D5D00EF33FFEE33FEED33FDEC33FCD5F0ED223A
:0E0D6D00E5F0247EA2D513CC92E7CDCEFF2276
:100D7B00EDD2E7CD33EC3392D524814006E4FFFE70
:100D8B00FDFC22FCE4CFCECDCC24E0501174FF80CF
:100D9B00EDC3CC13CCCD13CDCE13CECF13CF04706C
:070DAB00F030D5DE020EA9B5
:100DB200E9D2E7C933E833F892D5EDD2E7CD33EC87
:070DC20033FC5002B2D52200
:100DC900EC30E7100FBF000C0EBE00080DBD00048B
:100DD9000BEB6014A2D5EB13FCED92E7FD2274FF37
:100DE900FCFDFEFF22E480F8A2D574FF13FC7D8090
:030DF900E480EFA4
:0300000002110BDF
:0C110B00787FE4F6D8FD75813D0211529A
:100DFC00BB010689828A83E0225002E722BBFE02F5
:090E0C00E32289828A83E4932227
:100E1500BB010CE58229F582E5833AF583E0225092
:100E250006E92582F8E622BBFE06E92582F8E222DC
:0D0E3500E58229F582E5833AF583E49322F6
:100E4200EF8DF0A4A8F0CF8CF0A428CE8DF0A42EC4
:020E5200FE227E
:100E5400BC000BBE0029EF8DF084FFADF022E4CC82
:100E6400F875F008EF2FFFEE33FEEC33FCEE9DEC4B
:100E7400984005FCEE9DFE0FD5F0E9E4CEFD22ED91
:100E8400F8F5F0EE8420D21CFEADF075F008EF2FDB
:100E9400FFED33FD4007985006D5F0F222C398FDCC
:050EA4000FD5F0EA2269
:0E0EA900C3E49FFFE49EFEE49DFDE49CFC225A
:10111700021197E493A3F8E493A34003F68001F246
:1011270008DFF48029E493A3F85407240CC8C333D9
:10113700C4540F4420C8834004F456800146F6DFA8
:10114700E4800B01020408102040809016EDE47E35
:10115700019360BCA3FF543F30E509541FFEE4939D
:10116700A360010ECF54C025E060A840B8E493A364
:10117700FAE493A3F8E493A3C8C582C8CAC583CA8F
:10118700F0A3C8C582C8CAC583CADFE9DEE780BE47
:0116FF0000EA
:00000001FF
