:09110500011D000122000120007F
:100DAC0012100E7FFF12116E7FFF121173E51C7073
:100DBC001A751601751710FBFA7D05FF120D387F99
:100DCC00FF12116E7FFF12117380117516017517CA
:100DDC00107B017A007D05E4FF120D38E52224FE1C
:100DEC00601114601414601714601A24047018C273
:100DFC00A08014C287C2A2800EC285C2A48008C281
:0F0E0C0083C2A68002C281120C13120EE3809ED5
:030023000209FED1
:1009FE00C0E0C0F0C083C082C0D075D000C000C0BF
:100A0E0001C002C003C004C005C006C00730981460
:100A1E00C298AF1D051D741E2FF8A699E51DB402D0
:100A2E0003751D00E51EB40212D2B320B2FD1211E1
:100A3E002320B2F7C2B320B25480FBE51EB40305E7
:100A4E00851F228048E51EB40605851F21803EE5E0
:100A5E001EB40705851F208034E51EB40505851FCD
:100A6E001C802AE51EB4010CE51C70047FFF800E6D
:100A7E00AF1F800AE51E7015E51C7FFF700712116F
:100A8E006E7FFF800512116EAF1F121173D007D04B
:100A9E0006D005D004D003D002D001D000D0D0D0E3
:080AAE0082D083D0F0D0E032C9
:10100E00C2A0C287C285C283C2A2C2A4C2A6C28126
:10101E00C2B5C2B4C2B31210D0121030120AB60248
:02102E000FE7CA
:100EE300E4FBFDFF120F2E7B01E4FD7F12120F2E98
:100EF300E522FB7A00751601751710E4FD7F2612B3
:100F03000D38E521B401047B058006E52170097BDA
:100F1300067D057F50120F2EE51C7005D2B5C2B4B5
:0B0F230022E51CB40104D2B4C2B522C8
:100C130020A11012112320A10AD2A07F0B1211369A
:100C230030A1FD20861012112320860AD2877F0C63
:100C33001211363086FD20841012112320840AD22B
:100C4300857F0D1211363084FD208210121123206E
:100C5300820AD2837F0E1211363082FD20A3101236
:100C6300112320A30AD2A27F0212113630A3FD2042
:100C7300A51012112320A50AD2A47F031211363026
:100C8300A5FD20A71012112320A70AD2A67F0412C4
:100C9300113630A7FD20801012112320800AD28143
:090CA3007F051211363080FD229C
:051168007F34DFFE00F2
:01116D00225F
:09110F007F4E7E02DEFEDFFA00D5
:0111180022B4
:091119007F0E7E61DEFEDFFA00AC
:0111220022AA
:091123007F157E82DEFEDFFA007A
:01112C0022A0
:08112D007FC27E8DDEFEDFFAB9
:011135002297
:0C10DE007F9D7ECF7D07DDFEDEFADFF691
:0110EA0022E3
:0C10EB007FF67ED47D19DDFEDEFADFF614
:0110F70022D6
:0C10F8007FD97EAB7D49DDFEDEFADFF61D
:0111040022C8
:10104F00D3EF9400EE94004010007D0B7CBEDCFECD
:09105F00DDFCEF1F70EA1E80E7C2
:011068002265
:100026000000000000000000002F00000000070094
:10003600070000147F147F1400242A7F2A1200620E
:1000460064081323003649552250000005030000BA
:1000560000001C224100000041221C000014083E42
:1000660008140008083E0808000000A06000000808
:10007600080808080000606000000020100804025C
:10008600003E5149453E0000427F4000004261511A
:100096004946002141454B31001814127F100027B4
:1000A60045454539003C4A49493000017109050377
:1000B60000364949493600064949291E00003636A8
:1000C600000000005636000000081422410000140B
:1000D60014141414000041221408000201510906E8
:1000E60000324959513E007C1211127C007F494969
:1000F6004936003E41414122007F4141221C007F9A
:1001060049494941007F09090901003E4149497AA7
:10011600007F0808087F0000417F41000020404121
:100126003F01007F08142241007F40404040007F8D
:10013600020C027F007F0408107F003E4141413ED1
:10014600007F09090906003E4151215E007F091919
:1001560029460046494949310001017F0101003F16
:100166004040403F001F2040201F003F4038403F96
:1001760000631408146300070870080700615149FA
:10018600454300007F41410000552A552A5500008D
:1001960041417F000004020102040040404040400B
:1001A600000001020400002054545478007F4844A3
:1001B600443800384444442000384444487F0038DA
:1001C6005454541800087E0901020018A4A4A47C03
:1001D600007F080404780000447D400000408084CD
:1001E6007D00007F102844000000417F4000007C15
:1001F60004180478007C0804047800384444443821
:1002060000FC242424180018242418FC007C08046C
:10021600040800485454542000043F444020003C45
:100226004040207C001C2040201C003C4030403CCC
:10023600004428102844001CA0A0A07C004464545C
:100246004C441414141414140000000000000000A0
:100256000000000000000000000000F800000000A0
:10026600000000333000000000100C06100C0600E1
:10027600000000000000000040C07840C078400048
:10028600043F04043F040400007088FC08300000AA
:10029600001820FF211E0000F008F000E018000002
:1002A60000211C031E211E0000F0088870000000BB
:1002B6001E2123241927211010160E00000000000D
:1002C6000000000000000000000000E0180402002A
:1002D600000000071820400000020418E00000009B
:1002E6000040201807000000404080F08040400099
:1002F6000202010F01020200000000F000000000EF
:100306000101011F010101000000000000000000C2
:1003160080B0700000000000000000000000000037
:1003260000010101010101010000000000000000C0
:10033600003030000000000000000000806018045B
:10034600006018060100000000E010080810E00038
:10035600000F102020100F00001010F80000000001
:100366000020203F20200000007008080888700048
:1003760000302824222130000030088888483000C8
:100386000018202020110E000000C02010F80000E8
:1003960000070424243F240000F808888808080081
:1003A6000019212020110E0000E010888818000096
:1003B600000F112020110E0000380808C838080068
:1003C6000000003F000000000070880808887000E8
:1003D600001C222121221C0000E010080810E00069
:1003E6000000312222110F00000000C0C0000000F2
:1003F6000000003030000000000000800000000017
:10040600000080600000000000008040201008000E
:1004160000010204081020004040404040404000D7
:1004260004040404040404000008102040800000B2
:100436000020100804020100007048080808F000B7
:100446000000003036010000C030C828E810E00087
:100456000718272423140B000000C038E000000012
:10046600203C23020227382008F88888887000007C
:10047600203F202020110E00C03008080808380050
:10048600071820202010080008F808080810E000C7
:10049600203F202020100F0008F88888E808100068
:1004A600203F20202320180008F88888E80810003C
:1004B600203F200003000000C03008080838000074
:1004C60007182020221E020008F808000008F80875
:1004D600203F210101213F20000808F808080000FC
:1004E6000020203F2020000000000808F80808002F
:1004F600C08080807F00000008F888C028180800A7
:10050600203F20012638200008F8080000000000DF
:10051600203F20202020300008F8F800F8F80800D6
:10052600203F003F003F200008F830C00008F808D0
:10053600203F200007183F00E01008080810E000E0
:100546000F10202020100F0008F808080808F000F7
:10055600203F210101010000E01008080810E0001A
:100566000F18242438504F0008F8888888887000AF
:10057600203F2000030C302000708808080838004F
:100586000038202121221C00180808F80808180045
:100596000000203F2000000008F808000008F808C6
:1005A600001F202020201F000878880000C8380877
:1005B600000007380E010000F80800F80008F800EF
:1005C600033C0700073C0300081868808068180889
:1005D60020302C03032C30200838C800C838080007
:1005E6000000203F2000000010080808C838080056
:1005F6002038262120201800000000FE02020200FA
:100606000000007F40404000000C30C000000000A9
:10061600000000010638C00000020202FE000000D1
:10062600004040407F000000000004020202040077
:1006360000000000000000000000000000000000B4
:10064600808080808080808000020204000000009C
:100656000000000000000000000080808080000094
:100666000019242222223F2008F800808000000082
:10067600003F112020110E00000000808080000045
:10068600000E112020201100000000808088F80054
:10069600000E112020103F20000080808080000086
:1006A600001F222222221300008080F088888818EA
:1006B6000020203F202000000000808080808000F5
:1006C600006B94949493600008F80080808000008A
:1006D600203F210000203F20008098980000000065
:1006E6000020203F20200000000000809898000095
:1006F60000C08080807F000008F8000080808000B5
:10070600203F24022D302000000808F800000000D9
:100716000020203F20200000808080808080800094
:10072600203F20003F20003F808000808080000026
:10073600203F210000203F200000808080800000B4
:10074600001F202020201F008080008080000000E5
:1007560080FFA12020110E00000000808080800014
:10076600000E112020A0FF80808080008080800005
:1007760020203F2120000100000080808080800032
:100786000033242424241900008080E080800000A7
:100796000000001F202000008080000000808000F4
:1007A600001F202020103F20808080000080808055
:1007B60000010E30080601008080008000808080E5
:1007C6000F300C030C300F0000808000808080000A
:1007D6000020312E0E312000808080000080808035
:1007E60080818E70180601000080808080808000E5
:1007F6000021302C2221300000000000807C020203
:1008060000000000003F404000000000FF00000024
:1008160000000000FF0000000002027C80000000D3
:100826000040403F000000000006010102020404EF
:1008360000000000000000001090FF901000905291
:1008460034107F10345290000000000000000000B9
:1008560000000000000000000601FF000182825A2D
:10086600562322524E8202000000000000000000C3
:1008760000000000000000000000FE12929292921A
:1008860092929292929E00000000000000000000EA
:10089600000000000000000080601F0444E4544C87
:1008A6004444445464C404000000000000000000F6
:1008B6000000000000000000404042CC0004F49418
:1008C60094FF9494F404000000000000000000006F
:1008D60000000000000000000040201F20484442A5
:1008E600415F414244484000000000000000000013
:1008F60000000000000000000000FC242424FC2569
:100906002624FC242424040000000000000000002B
:10091600000000000000000040308F80844C552508
:100926002525554C80808000000000000000000056
:10093600000000000000000000020202020202E2C3
:1009460022120A060200000000000000000000005B
:100956000000000000000000000000000040807F52
:100966000000000000000000000000000000000081
:1009760000000000000000000000000040301CFFE6
:100986001C304000000000000000000000000000D5
:10099600000000000000000000000000000000FF52
:1009A6000000000000000000000000000000000041
:1009B600000000000000000000000000000000FF32
:1009C6000000000000000000000000000000000021
:1009D600000000000000000000000000020C38FFCC
:1009E600380C0200000000000000000000000000BB
:0809F6000000000000000000F9
:10106900EF4E60157D087C07ED1DAA0470011C4A2E
:0910790070F6EF1F70EA1E80E71B
:01108200224B
:100FAE00F583E5822CF582E43583F583E493FF7DAA
:010FBE000131
:100FBF00ED6004D2968002C296C297E4FEC291EF12
:100FCF0030E704D2928002C292D291EF25E0FF0E59
:070FDF00BE08EAD297D2968A
:010FE60022E8
:10000300AC07ED24B0FFE4FD120FBFEC54F0C45471
:100013000F4410FF120FBFEC540F4401FF020FBF38
:1010AE00E4FD7F8D120FBF7F14120FBF7FAF020FB3
:0110BE00BF72
:1010BF00E4FD7F8D120FBF7F10120FBF7FAE020FA7
:0110CF00BF61
:100FE700E4FCEC24B0FFE4FD120FBFE4FF120FBFD7
:100FF7007F10120FBFE4FB7D01E4FF120FBF0BBB95
:0610070080F50CBC08DCC2
:01100D0022C0
:060E1B00AA07A905AF03C0
:100E2100E4FCEF24E0FBEAD3947F4004E4FA0909EF
:100E3100AF02AD01120003E4FC75F010EBA42CF538
:100E410082E435F0F583E582244EF582E5833402B0
:100E5100120FB80CBC08E2AF02E904FD120003E472
:100E6100FC75F010EBA42CF582E435F0F583E582F6
:100E71002456F582E5833402120FB80CBC08E22235
:041083008F1BA90511
:101087007F017E00AD0119ED6009AD1B7C00120BDD
:03109700AC80F139
:01109A002233
:080D38008F128D138A148B1534
:100D4000E4F51AF518E518C39516505FC3E5169536
:100D50001814FD7F0A121083AC14AD15CFCDCFCE81
:100D6000CCCE120BBE7C007D0A120BBE8D19E51A8B
:100D70007020E51614FFE518C39F5016E519700F93
:100D8000E517C3138518F0A42512FF7B2080137587
:100D90001A01E517C3138518F0A42512FFE51924DD
:0B0DA00030FBAD13120E1B0518809AEB
:010DAB002225
:0A0F71008F238D248B258A26892703
:100F7B00E4F528AB25AA26A92785288275830012BC
:100F8B000B7FFB601DAD24AF23120E1B74082523B2
:100F9B00F523D394784007E4F5230524052405288D
:020FAB0080D1F3
:010FAD002221
:040F2E00AA07A90560
:100F3200E4F512120003E4FC75F040EBA4243EF544
:100F420082E5F03408120FAE05120CBC10EAAF02B3
:100F5200E904FD120003E4FC75F040EBA4245EF505
:0E0F620082E5F03408120FAE05120CBC10EA46
:010F7000225E
:040E81008F088B0A41
:100E8500E4F50FF510E50B5407700BE50B13131381
:100E9500541FF511800AE50B131313541F04F511A4
:100EA5008D11E511C3950B5034AD11AF0812000338
:100EB500AC08ECC3950A5021AB0CAA0DA90E051080
:100EC500E510AE0F7002050F14F5828E83120B7FAD
:0D0ED500FF7D01120FBF0C80D9051180C5F3
:010EE20022ED
:100AB600D2957F647E00121069C2957F647E001213
:100AC6001069D295E4FD7FAE120FBFE4FF120FBF8F
:100AD6007F10120FBF7F40120FBF7F81120FBF7FA3
:100AE600CF120FBF7FA1120FBF7FC8120FBF7FA605
:100AF600120FBF7FA8120FBF7F3F120FBF7FD31207
:100B06000FBFE4FF120FBF7FD5120FBF7F80120FFA
:100B1600BF7FD9120FBF7FF1120FBF7FDA120FBF4F
:100B26007F12120FBF7FDB120FBF7F40120FBF7FF6
:100B360020120FBF7F02120FBF7F8D120FBF7F14CF
:100B4600120FBF7FA4120FBF7FA6120FBF7FAF1277
:100B56000FBF7FAF120FBF120FE7E4FDFF020003C6
:10103000E4F5D8F5E9F5F975D90275EA4D75FA4D7B
:0F10400075DA4275EB4D75FB4D75DB42D2DE2242
:07113E0075EA1A75FA1A2286
:0711450075EB1A75FB1A227D
:07114C0075EA4D75FA4D2212
:0711530075EB4D75FB4D2209
:07115A0075EA8075FA80229E
:0711610075EB8075FB802295
:05116E008FEA8FFA2258
:051173008FEB8FFB2251
:0E10D000439850438E11759CFDD2AFD2AC22D6
:081136008F993099FDC2992246
:10109B00120B66FF600C121136740129F9E43AFA4F
:0310AB0080EE22B2
:03000000020CAC43
:0C0CAC00787FE4F6D8FD758128020CF377
:100B6600BB010689828A83E0225002E722BBFE028D
:090B7600E32289828A83E49322C0
:100B7F00BB010CE58229F582E5833AF583E022502B
:100B8F0006E92582F8E622BBFE06E92582F8E22275
:0D0B9F00E58229F582E5833AF583E493228F
:100BAC00EF8DF0A4A8F0CF8CF0A428CE8DF0A42E5D
:020BBC00FE2217
:100BBE00BC000BBE0029EF8DF084FFADF022E4CC1B
:100BCE00F875F008EF2FFFEE33FEEC33FCEE9DECE4
:100BDE00984005FCEE9DFE0FD5F0E9E4CEFD22ED2A
:100BEE00F8F5F0EE8420D21CFEADF075F008EF2F74
:100BFE00FFED33FD4007985006D5F0F222C398FD65
:050C0E000FD5F0EA2201
:100CB800020DACE493A3F8E493A34003F68001F299
:100CC80008DFF48029E493A3F85407240CC8C3333D
:100CD800C4540F4420C8834004F456800146F6DF0C
:100CE800E4800B0102040810204080901105E47E86
:100CF800019360BCA3FF543F30E509541FFEE49301
:100D0800A360010ECF54C025E060A840B8E493A3C7
:100D1800FAE493A3F8E493A3C8C582C8CAC583CAF2
:100D2800F0A3C8C582C8CAC583CADFE9DEE780BEAA
:01110E0000E0
:00000001FF
